:1000000000800020BD01000029120000F511000051
:10001000F5110000F5110000F5110000F5110000C8
:10002000F5110000F5110000F51100002912000083
:1000300029120000F511000029120000E51100004E
:1000400029120000291200002912000029120000C4
:1000500029120000291200002912000029120000B4
:1000600029120000291200002912000029120000A4
:100070002912000029120000291200002912000094
:100080002912000029120000291200002912000084
:100090002912000029120000291200002912000074
:1000A0002912000029120000291200002912000064
:1000B0002912000029120000291200002912000054
:1000C0002912000029120000291200002912000044
:1000D0002912000029120000291200002912000034
:1000E0002912000029120000291200002912000024
:1000F0002912000029120000291200002912000014
:100100002912000029120000291200002912000003
:1001100029120000291200002912000029120000F3
:1001200029120000291200002912000029120000E3
:100130002912000029120000F521000029120000F8
:1001400029120000291200002912000029120000C3
:1001500029120000291200002912000029120000B3
:1001600029120000A3140000291200002912000027
:100170002912000029120000291200002912000093
:100180002912000029120000291200002912000083
:100190002912000029120000291200002912000073
:1001A0002912000029120000291200002912000063
:1001B000291200002912000029120000564B4CF2AF
:1001C000205210B51A804DF628121A8000BF00BFC9
:1001D00001F02DF8514B4FF010621A60504A9A60AE
:1001E000504ADA60504A136813F4807301BF4F49D4
:1001F0000B604FF4A85313604D4B4E491A7810070B
:1002000042BF1A7842F008021A704B4B2A221A7029
:100210004A4A4B4B8B4204D252F8040F43F8040B6A
:10022000F8E7484B484A0021934202D243F8041BA6
:10023000FAE7464A4648002350F8231042F82310B4
:1002400001336F2BF8D1434B434A802103F8011B44
:100250009342FBD1414B3D4A1A60414B0A221A702E
:10026000A3F5805324225A70A0221A709A7991071C
:10027000FCD59A79D206FCD43A4A937903F00C0360
:10028000082B384BF9D103221A7140225A719A79FE
:100290009406FCD533498A79324B5006FBD5324A55
:1002A000324911600221516020221A709A7902F0BD
:1002B0000C020C2AFAD12E4B2E4A1A602E4B4BF60A
:1002C0007F321A6000225A60072243F8042C2B4A1E
:1002D000C3F80C2D62B600F00EFD144B1B68DA0754
:1002E00005D5274800F080FA264B274A1A60274B8D
:1002F0001B785B0609D5234C234B22689A4204D114
:100300001F4800F071FA0023236002F047FD00F05F
:1003100095FF01F0AFFFFEE70E200540308004405E
:10032000823F04000100002B10D0034014D0034092
:1003300002D007402C88FF1F00E00740A0640000A7
:100340001C87FF1F2C88FF1F788AFF1F0082FF1F5A
:100350000000000000E400E05FE400E008ED00E0E1
:100360000050064000400640448004400000031155
:1003700004800440C010050014E000E000002020CC
:1003800000DD68501CE00340A5C3945A00F007400C
:10039000FFFFFFFFFFFFFFFFFFFFFFFFFFFFFFFF6D
:1003A000FFFFFFFFFFFFFFFFFFFFFFFFFFFFFFFF5D
:1003B000FFFFFFFFFFFFFFFFFFFFFFFFFFFFFFFF4D
:1003C000FFFFFFFFFFFFFFFFFFFFFFFFFFFFFFFF3D
:1003D000FFFFFFFFFFFFFFFFFFFFFFFFFFFFFFFF2D
:1003E000FFFFFFFFFFFFFFFFFFFFFFFFFFFFFFFF1D
:1003F000FFFFFFFFFFFFFFFFFFFFFFFFFFFFFFFF0D
:10040000FFFFFFFFFFFFFFFFFFFFFFFFFEFFFFFFFD
:10041000044B05481B1A062B02D9044B03B118479D
:10042000704700BF2F88FF1F2C88FF1F00000000AF
:1004300005490648091A891001EBD171491002D00B
:10044000034B03B1184770472C88FF1F2C88FF1FF0
:100450000000000010B5064C237843B9FFF7D8FF21
:10046000044B13B10448AFF300800123237010BD87
:100470002C88FF1F00000000A464000008B5084B92
:100480001BB108490848AFF300800848036813B956
:10049000BDE80840CCE7064B002BF9D09847F7E7BA
:1004A000000000003088FF1FA46400002C88FF1F9C
:1004B00000000000204B10B51C681C60E00304D550
:1004C0001E4B1A680AB11B689847A10304D51B4B41
:1004D0005A680AB15B689847E20704D5174B1A6C53
:1004E0000AB11B6C9847A30704D5144B5A6C0AB188
:1004F0005B6C9847200704D5104B9A6C0AB19B6C33
:100500009847610704D50D4BDA6C0AB1DB6C98474C
:10051000220304D5094B5A6E0AB15B6E98476303F8
:1005200008D5064BD3F8802022B1D3F88030BDE83F
:100530001040184710BD00BFA0A004404888FF1F0E
:100540002D4B10B51C681C60200704D52B4B5A6A34
:100550000AB15B6A9847E10604D5284B9A6A0AB14A
:100560009B6A9847620604D5244BDA6A0AB1DB6AB3
:100570009847230604D5214B1A6B0AB11B6B984789
:10058000A00604D51D4B5A6B0AB15B6B9847E10777
:1005900004D51A4BDA6B0AB1DB6B9847A20704D576
:1005A000164B9A6D0AB19B6D9847630704D5134BA0
:1005B000DA6D0AB1DB6D9847A00504D50F4BDA6EF2
:1005C0000AB1DB6E9847E10504D50C4B1A6F0AB1EE
:1005D0001B6F9847620504D5084B5A6F0AB15B6FD1
:1005E0009847230506D5054B9A6F1AB19B6FBDE856
:1005F0001040184710BD00BFA0B004404888FF1F3E
:100600001F4B10B51C681C60E00704D51D4B9A6891
:100610000AB19B689847210604D51A4B5A690AB15A
:100620005B699847E20604D5164B9A690AB19B6943
:100630009847630704D5134BDA690AB1DB69984719
:10064000200704D50F4B1A6A0AB11B6A9847A10705
:1006500004D50C4B9A6B0AB19B6B9847A20604D544
:10066000084B1A6D0AB11B6D9847630606D5054BFA
:100670005A6D1AB15B6DBDE81040184710BD00BF40
:10068000A0C004404888FF1F124B10B51C681C60B6
:10069000E00404D5104BDA680AB1DB689847A1047E
:1006A00004D50D4B1A690AB11B699847A20604D5F7
:1006B000094B1A6E0AB11B6E9847E30608D5064B24
:1006C000D3F8842022B1D3F88430BDE81040184715
:1006D00010BD00BFA09004404888FF1F0A4B10B512
:1006E0001C681C60A20704D5084B9A6E0AB19B6E69
:1006F0009847E30706D5054BDA6F1AB1DB6FBDE803
:100700001040184710BD00BFA0D004404888FF1F0C
:100710001030024B43F82010704700BF0082FF1FCB
:10072000212830B531D8042A2FD8DFE802F0070994
:1007300005030B00092306E00A2304E0082302E076
:100740000C2300E00B23114A114D02EBC002546848
:10075000104AC2F89C51104DC2F8A0510F4DC2F87A
:10076000A4510F4DC2F8A8510E4DC2F8AC5172B64B
:10077000226822F47022226042F080750A4A45EA1B
:10078000034342F82010236062B630BD6C61000064
:10079000890600000082FF1FB5040000410500002B
:1007A00001060000DD0600004888FF1F094B03EB2F
:1007B000C0035A6872B6136823F0877323F480333A
:1007C00043F080731360044B002243F8202062B68C
:1007D000704700BF6C6100004888FF1F014B18681C
:1007E000704700BF00D00340044B054900221A6047
:1007F0000A60044A106010221A60704714D0034047
:1008000004D0034000D0034000280EDB03024FF465
:100810008072B3F5004F06D3013A012AA3EB000121
:1008200001D00B46F5E71B0A10E043421B024FF4D0
:100830008072B3F5014F06D3013A012A00EB0301A0
:1008400001D00B46F5E71B0AC3F58073013A43EA72
:100850000223014A136070470CD0034018B11028DE
:1008600028BF102000E00120014B1870704700BF26
:100870001C87FF1F2DE9F041884605462C492D4E67
:10088000404602F0DDF947F61223002816BF022782
:1008900001271E46002426FA04F001F0DBFF4FF08A
:1008A0005E5102F02FF80146404602F0DDF910B922
:1008B0000134072CEFD126FA04F001F0CBFF4146BA
:1008C00002F0D4F84FF07C5101F012FF02F0E0F991
:1008D0004FF6FF73984228BF1846EB1E012B06D82F
:1008E000154B164900221A600A60154A18E0172DA8
:1008F0000CD8144BEB4003F0010383F001023BB131
:10090000114B12491A600A60114A09E0202D01D0EA
:10091000192D0BD10F4B104900221A600A600F4AA3
:10092000106044EAC7041C60BDE8F081BDE8F081B6
:10093000001BB740006CDC020090034004900340B1
:10094000089003406006F0000080034004800340EC
:100950000880034000800B4004800B4008800B405F
:10096000212810B518D80D4B53F8302092F880424A
:100970003CB1012311B182F8803010BD82F8003102
:1009800010BD03EBC0035B681A6811B142F00302AB
:1009900001E022F002021A6010BD00BF6C6100008D
:1009A00021289FBF044B53F8303093F80002C0B2A7
:1009B00088BF0020704700BF6C610000212816D856
:1009C0000B4A02EBC00301295B6852F8302004D1C6
:1009D00082F880124FF4A27208E0002082F88002B0
:1009E00011B94FF4807201E040F203121A607047AF
:1009F0006C610000282838B504464D4B0FD11B7898
:100A00000B2B03D8C3F10C03994003E00C2B1CBF44
:100A10000C3B19410846BDE8384000F0C9BB1A78C4
:100A20000125002905FA02F301DC002102E08B42D6
:100A300004D82946FFF794FF294674E00338C3B26F
:100A4000012B01D83B4B06E0202C01D0192C01D101
:100A5000394B00E0394B1B6803FB0113D3401D28C1
:100A600059D8DFE800F03F45392758581B2158581E
:100A7000585858585858582D330F155851585858D9
:100A80005858584B2E4A136040F244422D4B40E0D8
:100A90002D4A136040F244422C4B3AE02C4A13603A
:100AA00040F244422B4B34E02B4A136040F2444264
:100AB0002A4B2EE02A4A136040F24442294B28E098
:100AC000294A136040F24442284B22E0284A13602E
:100AD00040F24442274B1CE0274A136040F2444254
:100AE000264B16E0264A13604FF45172254B10E056
:100AF000254A13604FF45172244B0AE0244A1360D4
:100B00004FF45172234B04E0234A1360234B4FF4FC
:100B100051721A6038BD7F29D4BF002101212046BF
:100B2000FFF71EFF01212046BDE83840FFF746BF12
:100B30001C87FF1F0890034008800B40088003407B
:100B40001080034004B004401880034008B0044003
:100B5000208003400CB004402880034010B00440C3
:100B60003080034010C004403880034014C004406B
:100B70004080034018C00440488003401CC004402B
:100B8000109003403090044018900340349004408B
:100B900010800B4048A0044018800B404CA004403B
:100BA0002DE9F04107460E4690460825012408EA43
:100BB00004013846FFF7D4FE01213046FFF7D0FE8E
:100BC00000213046FFF7CCFE6400013DE4B2EED1D7
:100BD000BDE8F0812DE9F04107460E469046082415
:100BE000802508EA05013846FFF7BAFE01213046A4
:100BF000FFF7B6FE00213046FFF7B2FE013C4FEA98
:100C00005505EED1BDE8F08112B91A46FFF7C8BF0D
:100C10001A46FFF7DFBF2DE9F04180460F46082650
:100C20000025012438460121FFF79AFE4046FFF7D0
:100C3000B7FE00B1254300213846FFF791FE64005E
:100C4000013EE4B2EED12846BDE8F0812DE9F04145
:100C500080460F4608250024802638460121FFF7EC
:100C60007FFE4046FFF79CFE00B13443002138462A
:100C7000FFF776FE013D4FEA5606EED12046BDE86D
:100C8000F0810AB9FFF7C7BFFFF7E0BF72B60C4BA0
:100C90000C4A0D491B68D2F88820096862B64901E0
:100CA00002D5322B88BF0132C3F53B4330207F335E
:100CB000B3FBF0F34FF47A7000FB0230704700BFD3
:100CC00018E000E04888FF1F04ED00E038B5044656
:100CD000FFF7DCFF054624B938BD013C0AD005F515
:100CE0007A75FFF7D3FF401BB0F57A7FF5D201F09C
:100CF000F7F9F6E738BD204B4FF4000210B51A6043
:100D00004FF080721A604FF000721A604FF08062EC
:100D10001A604FF000621A60184B194A194C0020F3
:100D20004BF6FF71186059602823136093601361BC
:100D3000936113629362136393630922226004F543
:100D40008054043420606160A360236144F8042C63
:100D500004F5FE2420600C4801600C490B608B6098
:100D60000B4B1A6000F0E8F8FA20FFF7AFFFBDE880
:100D7000104000F0ADBE00BF08E100E00480034079
:100D80000C8003400080034008800B400C800B4027
:100D900000800B4070B50646C1EBC10433782BB11F
:100DA000013CFBD1002070BD013CFBD03378002B0F
:100DB000FAD0FFF76BFF0546337813B1013CFBD146
:100DC000F0E7FFF763FF401B70BD70B50646C1EB4F
:100DD000C10433782BB9013CFBD1002070BD013C2C
:100DE000FBD03378002BFAD1FFF750FF054633785C
:100DF00013B9013CFBD1F0E7FFF748FF401B70BD82
:100E000021280DD8074B53F8300021B1114600F5C9
:100E10000070FFF7BFBF114600F50070FFF7D5BFA8
:100E2000002070476C610000F0B5374A374B1168FD
:100E30000906FCD4196811F08001F8D172B6344863
:100E40000378002B5DD0334B334A1F6804330C32D8
:100E50001B6852F80C6C52F8085C52F8044C12688B
:100E60003B4433442B4423441344C3F34E032B4AE3
:100E700043F4004313602A4B1F68043340321B685D
:100E800052F80C6C52F8085C52F8044C12683B445F
:100E900033442B4423441344C3F34E03214A43F405
:100EA00000431360204B02F500221F680433103208
:100EB0001B681668556894683B440C3233441268CA
:100EC0002B4423441344C3F34E03184A43F4004312
:100ED0001360174B1F68043340321B6852F80C6CC8
:100EE00052F8085C52F8044C12683B4433442B44DB
:100EF00023441344C3F34E030E4A43F400431360E8
:100F0000017062B6F0BD00BF24B0034024B00B40B6
:100F1000D488FF1F38B0034040B003402CB00340DA
:100F200058B0034030B0034038B00B402CB00B40F9
:100F300058B00B4030B00B4030B5214B214D22480A
:100F4000224960221A70E1225A702C78204A03F557
:100F50008E23082C03F10C0301D1012402E00A2C9A
:100F600003D139240460132005E00C2C0CBF352478
:100F70003D240460122008601460164A18605378FB
:100F800015491046154A03B101230B6013606978B7
:100F9000134A144B012901D880210BE0042901D800
:100FA000842107E0082901D8852103E0102994BF96
:100FB00086218721116019600123037030BD00BFB5
:100FC000004007401D87FF1F08B003400CB00340DE
:100FD00008B00B40D488FF1F20B0034020B00B4066
:100FE00024B0034024B00B400D4B5A7858B1AAB935
:100FF000012159701B7823B10A4B1A6003F50023B5
:101000001A60FFF799BF4AB158701B78002BF8D0CF
:10101000044B186003F500231860F2E7704700BF27
:10102000D488FF1F24B003400C2810B404D9102822
:1010300028BF1020102307E00A2804D808288CBFF6
:101040000A23082300E00C23DCB2094A0949201ACC
:1010500090700878834208D013780C7013B1064B57
:1010600000221A6010BCFFF767BF10BC704700BFBA
:10107000D488FF1F1D87FF1F24B0034010B5114BFC
:101080001B7804460BB1FFF7CFFE012C0E4A01D8A6
:10109000002302E0042C02D8042313600EE0082C85
:1010A00003D805231360082308E0102C95BF0623FE
:1010B00007231360136094BF10232023034A537047
:1010C00010BD00BFD488FF1F24B003401D87FF1F41
:1010D0000D282DE9F0410FD9172801D80E380AE064
:1010E000A0F11A03052B01D8093804E0A0F122036E
:1010F000062B4CD81838C0B2264B274C1D5C2378E1
:101100000BB1FFF791FE290615D472B6234E0127C5
:101110003560E77062B672B633681A0604D5204BA4
:1011200000221B68E27025E0E378002BF0D062B665
:1011300000F0D6FFEFE772B61A4EDFF8708005F0C8
:101140004007FFB205F03F05336817B123F01003E5
:1011500001E043F0100333600123C8F8005023710D
:1011600062B672B6D8F800301B0609D50E4B0022C5
:101170001B68227162B6A07843FA00F0BDE8F081E6
:101180002379002BE0D062B600F0AAFFE9E7002047
:10119000BDE8F0817C620000D488FF1F00B00340EE
:1011A00010B003400CB00B4010B00B4000B00B402F
:1011B000084A136843F480531360074B5A78074B6F
:1011C0000AB1802200E0C0221A70054B80F30C00A7
:1011D000188070472C800440D488FF1F21C00C4029
:1011E00000C00C40024A136801331360704700BF0F
:1011F000D088FF1F08B50B4D2C462B68580301D52E
:1012000000F04FF92368590501D500F00DF8236867
:101210001A0501D500F008F82368DB04EDD500F0CD
:1012200003F8EAE73480044008B5FFF7E3FF024B18
:1012300010221A80704700BF002005407047034A03
:101240001368184410601846704700BF2087FF1FBE
:10125000002070474FF0FF3070474FF400534B6051
:1012600000207047012070474FF0FF307047FEE7C5
:10127000FEE70078B0FA80F0400970470123037060
:101280007047EFF313839BB9EFF3108098B9EFF336
:10129000058323B10F2B04D9084A985C01E04FF471
:1012A0008070EFF311833BB1984228BF1846704716
:1012B0004FF0FF3070471846704700BFF0E300E082
:1012C00070B50C4B0C4D1A7842F0020605EBC604C3
:1012D00082F00102606058781A70002814BFC82498
:1012E000882480F0010044EA0141587045F8361026
:1012F00070BD00BFDC88FF1F0080FF1F431E032B53
:1013000030B513D8EFF3108472B6094A02EB8302AA
:10131000506840B1416851600649058831F8132092
:10132000521B21F8132014B962B630BD002030BD25
:10133000DC88FF1F608AFF1F013803280FD8094B84
:1013400003EB80004369EFF3108272B600201BB1FB
:1013500019885B680844FAE712B962B67047002042
:10136000704700BFDC88FF1F013803280ED8EFF359
:10137000108272B6064B03EB80004369002013B164
:1013800001305B68FBE712B962B670470020704716
:10139000DC88FF1FF0B4EFF3108172B61A4D1B4CBE
:1013A00001235A1912F8012C12071FD59A00174E63
:1013B00054F832702FB906EB431308305860144BC1
:1013C00009E042F0010254F832707FB906EBC20323
:1013D000083058600F4B46F832300F4A92F82430EC
:1013E000013B82F8243069B962B60BE00133052B6A
:1013F000D7D101B962B6084B002283F82420F0BC93
:1014000000F042BDF0BC7047946200000080FF1FF6
:1014100088004000C8004000DC88FF1F431E032BEB
:1014200030B536D81B4A400140F010001044EFF3AD
:10143000108572B6184AD41894F82540032C0BD89E
:10144000DFE804F015040207052411E00830022447
:101450000EE0083004240BE09B00D01844690CB95E
:10146000416101E0C06A41601344D9620FE0032486
:10147000134410F0080F0A8883F8254001F108038F
:10148000436014BFC823882343EA0243036005B9BD
:1014900062B630BD0080FF1FDC88FF1F00BE7047B2
:1014A00070472DE9F74FDFF8DC92B64B1D78EDB2AF
:1014B00015F0040F1C461CD0B34A92F84430ABB16F
:1014C00092F8451001F0FF0329B1013BDBB282F82D
:1014D000453003B900BEAD4A117801F0FF0329B1D0
:1014E000013BDBB213700BB900F08CFC042389F8CC
:1014F000003005F0080303F0FF06002B00F08F8298
:10150000A34BA44E1A78D2B213094FEA920440F0CA
:10151000EA8106EBC403596856F83430C3F38303F9
:10152000013B0C2B00F2DB81DFE813F098019801FE
:10153000D901D901D901D901D901D901B601D901FE
:10154000D901D9010D000A688F4D4B68AA64EB647C
:1015500092B2914B46F8343040F281600023012171
:1015600082422B653361B36169702C4617D8B2F59E
:10157000D06F80F02581B2F5817F00F0DF8006D842
:10158000802A00F0C680822A00F0C88036E140F24E
:1015900002339A4200F0E380B2F5A06F1BE042F202
:1015A0002100824200F057810DD8B2F5086F00F09B
:1015B000AA80B2F5106F40F0218195F84A2085F895
:1015C00044201F460AE042F221218A4200F00D81A8
:1015D00042F221339A4200F015810FE1F219136AA9
:1015E0001B0603D5506A083800F04EFC0837802FE0
:1015F000F4D16A4F4FF00008A7F1110B684A52F876
:1016000028004FEA880A40B141680192009100F039
:101610003BFC0099019A0846F5E7624B42F80A0044
:101620004AF803005AF80B0030B14268009200F00B
:101630002BFC009A1046F7E75B4B03F1180243F8C6
:101640000A005A4B4AF8020023F818003B78023B84
:10165000032B07D8DFE803F002040204002300E0B4
:1016600001233B7008F10108B8F1040F07F10107ED
:10167000C4D100234E4FDFF820A185F824304FF06D
:1016800001084C4B08EB0702434412F8012C9B0065
:1016900012F0080F1A704FEA880B25D000F0D0FB2B
:1016A00038B106EB481308305860434B46F83B30DE
:1016B00006E094F8243046F83B00013384F82430E7
:1016C00000F0BEFB4BF0010338B106EBC30E08304F
:1016D000CEF8040046F833A006E046F8330094F84C
:1016E0002430013384F824304BF002004BF0030225
:1016F00008F101080023B8F1050F46F8303046F82C
:101700003230BED17FE095F8443085F83C300B464E
:101710007CE085F83C3085F83D3076E0B5F84C202B
:10172000042A6BD885F83C3085F83D309200234B75
:101730009B5C9E0769D585F83C1066E0B5F84C20A7
:1017400002F07F02042A59D8B5F84A30002B55D14F
:101750001A49920011440A7822F002020FE0B5F80B
:101760004C2002F07F02042A48D8B5F84A30002BFA
:1017700044D11249920011440A7842F002020A70E0
:1017800041E000BF80200740DC88FF1FD189FF1F98
:10179000902007400080FF1FC80040000189FF1F04
:1017A000E088FF1F3089FF1FF088FF1F608AFF1F3E
:1017B0009462000030C8011088004000C02007403B
:1017C000B5F84A20B5F84C10A54B5C68B4B1188840
:1017D000904208D15888884205D1120A032A0CBFCA
:1017E00023781B8913E00C33EFE79E4A11689E4A69
:1017F00011609E4A95F84A10117004E09C4B0F222C
:101800001A7028E000231C4601E002233C34B5F89E
:101810004E609E4228BF1E46402E374628BF4027B6
:1018200020463946FFF74CFDF61B3C4403D1402FC0
:1018300011D1374603E0402E374628BF40272046C7
:101840003946FFF73DFDF61B3C4401D1402F02D144
:101850002C65A5F864600122864B3FE0864AB2F809
:10186000480042F22103984212D184480023CD5C03
:101870001D540133072BFAD1804B1B680021862BA6
:1018800008BF0F23084608BF82F84530FFF718FD50
:101890007B4B46F8343022E0774F3E6D96B1B7F877
:1018A0006440402C254628BF402530462946FFF796
:1018B00007FD601B80B2A7F8640008B9402D00D175
:1018C00070193865B7F848206B4BB2F5A06F06D198
:1018D000002283F8492093F84A206A4B1A70654B1E
:1018E00001221A7097E0254606EBC404013B6168AB
:1018F00002F00802DFB2A1F1080002F0FF03002AA3
:1019000047D000F0C1FA5C4B03EB870ED819DEF824
:10191000141029B34A68CEF8142001F1080262605D
:1019200090F82520032A10D8DFE802F00205080B02
:101930003B44032207E03B44022204E03B440522EF
:1019400001E03B44042283F8252014F0080F0A88A4
:1019500014BFC823882343EA024346F8353015E014
:1019600090F82520032A09D8DFE802F010100205BC
:101970003B44002208E03B44012205E014F0080F3C
:1019800014BF032202223B4483F82520FFF788FD81
:1019900041E056F83520120C1FFA82FE21F808ECBF
:1019A0008AB3354A21F8063C4FEA870C41F8043CDB
:1019B00002EB0C014B680BB9486001E04B6D5860BD
:1019C0006244DFF8B48050652F4A32F81730734410
:1019D00022F8173000F034FA58B12C4A284B14F092
:1019E000080F00F1080008BF1346606046F8353064
:1019F00006E098F8243046F83500013388F82430A2
:101A000000F087FB07E0214A1D4B14F0080F08BFC8
:101A1000134646F83530082389F8003045E5E807D5
:101A20003CD5154A134D1948114602232B7001F875
:101A3000686B174BA83283E80300DA6098601E6178
:101A40009E610B4B0D221A70124AFF2313702370F4
:101A500016741371104B9F221A7001232B7030E003
:101A600098620000D088FF1F708AFF1FD289FF1F75
:101A7000C020074094200740DC88FF1F688AFF1FB2
:101A8000C800400098200740608AFF1F880040007F
:101A90000080FF1F8820074084200740290604D5C6
:101AA000094B0D221A7080232370AA0705D5074A17
:101AB0001378DBB2137002232370EB0644BF1023AC
:101AC000237003B0BDE8F08FC02007408820074096
:101AD00010B500F0FFF90023194819461950C41831
:101AE0000833882B164A6160F8D116490B6843F415
:101AF00080230B60144BC2F307211970C2F3074116
:101B0000120E19751A76114AFF23137000211372F1
:101B100002F8703C0123137582F8801013710C4B8E
:101B200070226FF450711A700B444FF400721A60F7
:101B300003F1C04303F5C82310221A7010BD00BF83
:101B40000080FF1F348004409C2007408020074015
:101B500049E400E010B5104C23686BB1206843885D
:101B60005A1C03441C7A03889A4212D300F08CF961
:101B7000094B00221A600DE0084B1B7813B94FF097
:101B8000FF3010BD0320FFF7B9FB20600028E5D12E
:101B9000F5E74280204610BDC489FF1F2089FF1F42
:101BA00010B50B4C236813B122686AB902E0094BE7
:101BB0001B7813B94FF0FF3010BD0320FFF79EFBD9
:101BC00020600028F0D1F5E753881344187A10BD3F
:101BD000C489FF1F2089FF1F044B9888044B1A6893
:101BE0001AB1138852889B1A18447047608AFF1FE5
:101BF000C489FF1F2DE9F84FDFF87890DFF878B03F
:101C000080460E460027CA4686B39BF800306BB369
:101C1000D9F8003053B90320FFF770FBCAF8000071
:101C200020B3038813B900F02FF9F4E7DAF8005075
:101C30002B46698833F8084B641AB44228BF3446EF
:101C400022461944404601F0D1F86B88A04427444D
:101C5000361B1C442B88A4B2A3426C80D4D82846DF
:101C600000F012F90023C9F80030CDE73846BDE88E
:101C7000F88F00BFC489FF1F2089FF1F10B5094BD3
:101C80001B786BB1084C206818B100F0FDF80023F8
:101C900023600320FFF732FB10B100F0F5F8F8E7FE
:101CA00010BD00BF2089FF1FC489FF1F2DE9F84325
:101CB0002A4C2B4E012380460D4623712746002DCA
:101CC00048D0A3680BBB47F20959337803F0FF02F1
:101CD0000BB9227112E00420FFF746FB072806D853
:101CE0000123237100F0ACF8A06070B93871B9F12C
:101CF000010901D0237B2BB1012323734FF0FF3067
:101D0000BDE8F88300F0ECF9DFE7A1680023237356
:101D10004B88C3F14002AA4228BF2A4698180B44B8
:101D20004880AD1A073308EB0209C84504D018F8FB
:101D3000012B03F8012FF8E74B883F2B06D94023EE
:101D40000B800420FFF76AFB0023A3600523637365
:101D5000C846B4E725712846BDE8F883C489FF1F4B
:101D60002089FF1F07B502AB012103F8010D1846BA
:101D7000FFF79CFF03B05DF804FB10B50D4C012389
:101D80002371A3687BB90C4B1B7813B90020207119
:101D900010BD0420FFF7E8FA0728F7D800F050F844
:101DA000A0600028F2D0A368588800232371C0F1F6
:101DB000400010BDC489FF1F2089FF1F70B50F4B65
:101DC0001B78D3B10E4CA568012626714DB10026B3
:101DD0006B88667329462B800420FFF71FFBA660E3
:101DE00009E000F02DF8014620B104206573FFF7EB
:101DF00015FB00E066730023237170BD2089FF1F6F
:101E0000C489FF1F38B50D4C237903F0FF059BB93A
:101E1000A16831B14B880B800420FFF7FFFAA56061
:101E200038BD00F00DF8014620B10420BDE838406F
:101E3000FFF7F4BA0123637338BD00BFC489FF1FE5
:101E400010B5EFF3108072B60D4C2268B2FA82F131
:101E50000B2902DD88B962B610BD4FF00043CB40BC
:101E600022EA0302226000B962B6064C48234B43C3
:101E7000E0180022E250426010BD002010BD00BFFB
:101E80002487FF1FBC83FF1F0E4B4822C31AB3FBDE
:101E9000F2F30B2B14D80C4A127822B10B4A1278A9
:101EA0000AB1FFF777BAEFF3108272B608484FF025
:101EB000004121FA03F301681943016002B962B6D7
:101EC000704700BFBC83FF1F0089FF1F2089FF1FD1
:101ED0002487FF1F1FB5EFF3108272B6154B7021D8
:101EE00019701549412008700F2001F8010C80215C
:101EF000197019780906FCD5104B186802B962B63A
:101F00000F4B984298BF0A2301AC98BF58430A224E
:101F1000214600F01BF80B4A0023E15C21B101339C
:101F20000A2B22F8021BF8D1074A01335B00137019
:101F300004B010BD0000024007000240080002404B
:101F40007F9698002A87FF1F2887FF1F30B503461A
:101F50000020B3FBF2F402FB1433092B94BF30339F
:101F60003733DBB20B5423460CB10130F1E70A18CA
:101F700023465470C41AA34206DACC5C1578CD54BB
:101F800002F801490133F5E7084630BD031E10B5DC
:101F90000C4603DBBDE81040FFF7D8BF2D2001F849
:101FA000010B5842FFF7D2FF204610BD2DE9FF413B
:101FB00090461E460C4600F043FB03AB009342469E
:101FC00002AB00F085FE029D0746B8F1000F09D173
:101FD00045B90778404B414A0120342F94BF17463A
:101FE0001F4607E0384600F0EBFFA842C8BF0130AB
:101FF00005B90130DDF80CE0BEF1000F00D0013072
:10200000231A002B06EB000209DD1A443146334443
:102010004FF0200C994203D001F801CBFAE7334688
:10202000BEF1000F02D02D2119700133002D0CD10B
:10203000B8F1000F06D01946302501F8025B2E25B5
:102040005D700B464FF02E0E2CE0FBDAB8F1000F5E
:10205000F8D09E4630210EF8021B4FF02E0C83F86C
:1020600001C0734601324FF0000EED1A13EB050C60
:1020700004D503F8011B4FF0010EF7E7BEF1000F86
:10208000E0D0CDF808C0DDE75D1C17F8011B197022
:10209000AA420AD002990139029111B99D1C83F814
:1020A00001E02B469342EFD300E01346002C0DDAFB
:1020B0002044404219462024421A1A44002A02DDD4
:1020C00001F8014BF8E70028A8BF1B180022304692
:1020D0001A7004B0BDE8F081EC620000EE6200000E
:1020E00070470FB410B5D2B054AB02AC53F8042B08
:1020F000019340F23F11204601F00AF80023014607
:1021000023542046FFF7D2FD52B0BDE8104004B082
:1021100070472DE9F0412F4C2F4EA51CFFF75CFDB9
:102120002C4F00284CD023786078834202D9591E66
:10213000091A07E0C0F1810111F0FF0140D023B975
:10214000C0F18001C9B200293AD02844FFF752FDFE
:102150008046002834D0637823449B786D2B03D1CC
:1021600031681E48FFF7BDFF637823449B78732BCB
:1021700004D11B4B1B481968FFF7B3FF6078231885
:102180009B78692B07D1B8F1010F01BF164B2022B4
:102190001A604FF0000823189B786F2B07D1B8F115
:1021A000010F01BF114B20221A604FF0000840447C
:1021B0008123B0FBF3F303EBC313C01A6070ADE7E8
:1021C0003A787B789A421EBF094B4FF080421A60E2
:1021D000BDE8F081D389FF1F08800340F062000052
:1021E00000800340FE62000084F00F4088F00F4042
:1021F00004E100E038B5EFF3108572B6184B1A68A9
:1022000012062AD51A68174C22F080021A6022782A
:1022100063789A4211D02378E218013391788122B1
:10222000B3FBF2F202EBC2129B1A11F0010F237002
:102230004FF020030FD00C4A0EE00C4B4FF08042C1
:102240001A600B4B20221A60FFF763FF2278637835
:102250009A42E0D101E0064A136005B962B638BD82
:1022600000800340D389FF1F84F00F4084E100E029
:1022700088F00F40324B33484FF4A27210B51A6009
:10228000314A136843F020031360304B20221A6058
:1022900001384FF020011A60FAD12D4A294C116003
:1022A0000846013C4FF020011060FAD1294819601E
:1022B00001381960FCD120231360274A274913688D
:1022C00023F480731360264B1A6822F000521A60C0
:1022D0001A6822F000721A600A7802F07F020A700F
:1022E0001A6822F000621A601E4A136823F4C013B1
:1022F0001360A1F52F316FF4727319440B6823F04A
:1023000020030B60136823F4E05323F004031360ED
:10231000154A136823F001031360144B1A6822F066
:1023200018021A60124A41F24601116048221A60EE
:10233000104A136843F00203136030BFFDE700BF8B
:1023400014B00440E8180B0094F00F4084F00F40E4
:1023500088F00F40BA4A210010D0034001400740E6
:102360003C8004403480044010E000E000800340E2
:102370000880034010ED00E081F0004102E000BF62
:1023800083F0004330B54FEA41044FEA430594EA35
:10239000050F08BF90EA020F1FBF54EA000C55EA70
:1023A000020C7FEA645C7FEA655C00F0E2804FEA41
:1023B0005454D4EB5555B8BF6D420CDD2C4480EA23
:1023C000020281EA030382EA000083EA010180EA53
:1023D000020281EA0303362D88BF30BD11F0004FA1
:1023E0004FEA01314FF4801C4CEA113102D04042D7
:1023F00061EB410113F0004F4FEA03334CEA133312
:1024000002D0524263EB430394EA050F00F0A78029
:10241000A4F10104D5F1200E0DDB02FA0EFC22FA24
:1024200005F2801841F1000103FA0EF2801843FA18
:1024300005F359410EE0A5F120050EF1200E012A09
:1024400003FA0EFC28BF4CF0020C43FA05F3C01847
:1024500051EBE37101F0004507D54FF0000EDCF1C0
:10246000000C7EEB00006EEB0101B1F5801F1BD369
:10247000B1F5001F0CD349085FEA30004FEA3C0C6D
:1024800004F101044FEA445212F5800F80F09A8063
:10249000BCF1004F08BF5FEA500C50F1000041EB67
:1024A000045141EA050130BD5FEA4C0C404141EB6B
:1024B000010111F4801FA4F10104E9D191F0000F92
:1024C00004BF01460020B1FA81F308BF2033A3F115
:1024D0000B03B3F120020CDA0C3208DD02F1140C0C
:1024E000C2F10C0201FA0CF021FA02F10CE002F147
:1024F0001402D8BFC2F1200C01FA02F120FA0CFC40
:10250000DCBF41EA0C019040E41AA2BF01EB045188
:10251000294330BD6FEA04041F3C1CDA0C340EDC86
:1025200004F11404C4F1200220FA04F001FA02F3C9
:1025300040EA030021FA04F345EA030130BDC4F187
:102540000C04C4F1200220FA02F001FA04F340EA7C
:102550000300294630BD21FA04F0294630BD94F02D
:10256000000F83F4801306BF81F480110134013D14
:102570004EE77FEA645C18BF7FEA655C29D094EA85
:10258000050F08BF90EA020F05D054EA000C04BF03
:102590001946104630BD91EA030F1EBF00210020EE
:1025A00030BD5FEA545C05D14000494128BF41F08D
:1025B000004130BD14F580043CBF01F5801130BDF1
:1025C00001F0004545F0FE4141F470014FF000007C
:1025D00030BD7FEA645C1ABF194610467FEA655C2D
:1025E0001CBF0B46024650EA013406BF52EA0335CF
:1025F00091EA030F41F4002130BD00BF90F0000FBD
:1026000004BF0021704730B54FF4806404F13204F8
:102610004FF000054FF0000150E700BF90F0000FB1
:1026200004BF0021704730B54FF4806404F13204D8
:1026300010F0004548BF40424FF000013EE700BFA8
:1026400042004FEAE2014FEA31014FEA02701FBF38
:1026500012F07F4393F07F4F81F06051704792F00A
:10266000000F14BF93F07F4F704730B54FF4607484
:1026700001F0004521F0004120E700BF50EA0102CF
:1026800008BF704730B54FF000050AE050EA01027C
:1026900008BF704730B511F0004502D5404261EBEC
:1026A00041014FF4806404F132045FEA915C3FF42D
:1026B000DCAE4FF003025FEADC0C18BF03325FEAC6
:1026C000DC0C18BF033202EBDC02C2F1200300FA7B
:1026D00003FC20FA02F001FA03FE40EA0E0021FAA0
:1026E00002F11444C1E600BF80F0004002E000BFE8
:1026F00081F0004142001FBF5FEA410392EA030FED
:102700007FEA226C7FEA236C6AD04FEA1262D2EB36
:102710001363C1BFD218414048404140B8BF5B423B
:10272000192B88BF704710F0004F40F4000020F0D4
:102730007F4018BF404211F0004F41F4000121F0EA
:102740007F4118BF494292EA030F3FD0A2F1010234
:1027500041FA03FC10EB0C00C3F1200301FA03F172
:1027600000F0004302D5494260EB4000B0F5000F95
:1027700013D3B0F1807F06D340084FEA310102F154
:102780000102FE2A51D2B1F1004F40EBC25008BF06
:1027900020F0010040EA03007047490040EB0000D0
:1027A00010F4000FA2F10102EDD1B0FA80FCACF1FF
:1027B000080CB2EB0C0200FA0CF0AABF00EBC250FE
:1027C00052421843BCBFD0401843704792F0000FEC
:1027D00081F4000106BF80F400000132013BB5E73F
:1027E0004FEA41037FEA226C18BF7FEA236C21D0B5
:1027F00092EA030F04D092F0000F08BF084670471A
:1028000090EA010F1CBF0020704712F07F4F04D1E7
:10281000400028BF40F00040704712F100723CBFFA
:1028200000F50000704700F0004343F0FE4040F424
:10283000000070477FEA226216BF08467FEA2363E2
:102840000146420206BF5FEA412390EA010F40F4CD
:10285000800070474FF0000304E000BF10F0004319
:1028600048BF40425FEA000C08BF704743F0964300
:1028700001464FF000001CE050EA010208BF70471B
:102880004FF000030AE000BF50EA010208BF7047A2
:1028900011F0004302D5404261EB41015FEA010CB7
:1028A00002BF84460146002043F0B64308BFA3F1AF
:1028B0008053A3F50003BCFA8CF2083AA3EBC25391
:1028C00010DB01FA02FC634400FA02FCC2F12002B0
:1028D000BCF1004F20FA02F243EB020008BF20F0E7
:1028E0000100704702F1200201FA02FCC2F120024D
:1028F00050EA4C0021FA02F243EB020008BF20EA42
:10290000DC7070474FF0FF0C1CEAD0521EBF1CEA6F
:10291000D15392EA0C0F93EA0C0F6FD01A4480EA5D
:10292000010C400218BF5FEA41211ED04FF0006346
:1029300043EA501043EA5111A0FB01310CF0004072
:10294000B1F5000F3EBF490041EAD3715B0040EA98
:10295000010062F17F02FD2A1DD8B3F1004F40EB68
:10296000C25008BF20F00100704790F0000F0CF03B
:10297000004C08BF49024CEA502040EA51207F3AFF
:10298000C2BFD2F1FF0340EAC250704740F40000DA
:102990004FF00003013A5DDC12F1190FDCBF00F0CB
:1029A00000407047C2F10002410021FA02F1C2F179
:1029B000200200FA02FC5FEA310040F1000053EA15
:1029C0004C0308BF20EADC70704792F0000F00F063
:1029D000004C02BF400010F4000F013AF9D040EA69
:1029E0000C0093F0000F01F0004C02BF490011F4FD
:1029F000000F013BF9D041EA0C018FE70CEAD153FB
:102A000092EA0C0F18BF93EA0C0F0AD030F0004C7A
:102A100018BF31F0004CD8D180EA010000F000402E
:102A2000704790F0000F17BF90F0004F084691F0EC
:102A3000000F91F0004F14D092EA0C0F01D1420226
:102A40000FD193EA0C0F03D14B0218BF084608D1EF
:102A500080EA010000F0004040F0FE4040F4000039
:102A6000704740F0FE4040F4400070474FF0FF0CCC
:102A70001CEAD0521EBF1CEAD15392EA0C0F93EA13
:102A80000C0F69D0A2EB030280EA010C49024FEA65
:102A9000402037D04FF0805343EA111143EA10131E
:102AA0000CF000408B4238BF5B0042F17D024FF4D6
:102AB000000C8B4224BF5B1A40EA0C00B3EB510FB1
:102AC00024BFA3EB510340EA5C00B3EB910F24BF9A
:102AD000A3EB910340EA9C00B3EBD10F24BFA3EB1F
:102AE000D10340EADC001B0118BF5FEA1C1CE0D1E7
:102AF000FD2A3FF650AF8B4240EBC25008BF20F09A
:102B0000010070470CF0004C4CEA50207F32C2BFED
:102B1000D2F1FF0340EAC250704740F400004FF08A
:102B20000003013A37E792F0000F00F0004C02BFBB
:102B3000400010F4000F013AF9D040EA0C0093F085
:102B4000000F01F0004C02BF490011F4000F013BDF
:102B5000F9D041EA0C0195E70CEAD15392EA0C0F47
:102B600008D142027FF47DAF93EA0C0F7FF470AF7F
:102B7000084676E793EA0C0F04D14B023FF44CAFC2
:102B800008466EE730F0004C18BF31F0004CCAD157
:102B900030F000427FF45CAF31F000437FF43CAF93
:102BA0005FE700BF4FF0FF3C06E000BF4FF0010CB5
:102BB00002E000BF4FF0010C4DF804CD4FEA400297
:102BC0004FEA41037FEA226C18BF7FEA236C11D0E1
:102BD00001B052EA530C18BF90EA010F58BFB2EB94
:102BE000030088BFC81738BF6FEAE17018BF40F014
:102BF000010070477FEA226C02D15FEA402C05D1C8
:102C00007FEA236CE4D15FEA412CE1D05DF8040B4C
:102C1000704700BF844608466146FFE70FB5FFF7DF
:102C2000C9FF002848BF10F1000F0FBD4DF808ED97
:102C3000FFF7F4FF0CBF012000205DF808FB00BF88
:102C40004DF808EDFFF7EAFF34BF012000205DF8E2
:102C500008FB00BF4DF808EDFFF7E0FF94BF01202F
:102C600000205DF808FB00BF4DF808EDFFF7D2FF2C
:102C700094BF012000205DF808FB00BF4DF808ED6F
:102C8000FFF7C8FF34BF012000205DF808FB00BF3C
:102C900042000ED2B2F1FE4F0BD34FF09E03B3EBC6
:102CA000126209D44FEA002343F0004323FA02F0F2
:102CB00070474FF00000704712F1610F01D14202DE
:102CC00002D14FF0FF3070474FF00000704700BF57
:102CD00010B582B0049C00940024019400F0A0FA86
:102CE00002B010BDF0B583B016461F460D46002455
:102CF000FFF7A6FC009733462A46019400F090FAAD
:102D000003B0F0BD10B582B0049C0094002401947F
:102D100000F0FCFA02B010BDF0B583B016461F46B5
:102D20000D460024FFF78CFC009733462A46019499
:102D300000F0ECFA03B0F0BDF0B51C4685B00023FE
:102D40001546002206460F4603F0C0F9234688B90F
:102D50000B4A0193106800956721002532463B46D7
:102D60000395029100F01EFBA84214BF204628469E
:102D700005B0F0BD2D22013D03F8012BE8E700BFAF
:102D8000C887FF1F70B515460C46FFF759FC2B4648
:102D90002246BDE87040FFF7CFBF00BF70B50F4EB1
:102DA0000F4D761BB61018BF002405D0013455F81E
:102DB000043B9847A642F9D10A4E0B4D761B03F00F
:102DC00067FBB61018BF002406D0013455F8043B49
:102DD0009847A642F9D170BD70BD00BF9C64000049
:102DE0009C640000A06400009C640000844641EAEA
:102DF000000313F003036DD1403A41D351F8043B73
:102E000040F8043B51F8043B40F8043B51F8043BC4
:102E100040F8043B51F8043B40F8043B51F8043BB4
:102E200040F8043B51F8043B40F8043B51F8043BA4
:102E300040F8043B51F8043B40F8043B51F8043B94
:102E400040F8043B51F8043B40F8043B51F8043B84
:102E500040F8043B51F8043B40F8043B51F8043B74
:102E600040F8043B51F8043B40F8043B51F8043B64
:102E700040F8043B51F8043B40F8043B403ABDD2D3
:102E8000303211D351F8043B40F8043B51F8043B75
:102E900040F8043B51F8043B40F8043B51F8043B34
:102EA00040F8043B103AEDD20C3205D351F8043B04
:102EB00040F8043B043AF9D2043208D0D2071CBFD0
:102EC00011F8013B00F8013B01D30B8803806046F9
:102ED000704700BF082A13D38B078DD010F003036F
:102EE0008AD0C3F10403D21ADB071CBF11F8013BDF
:102EF00000F8013B80D331F8023B20F8023B7BE72E
:102F0000043AD9D3013A11F8013B00F8013BF9D258
:102F10000B7803704B7843708B78837060467047F2
:102F200070B4840746D0541E002A41D0CDB2034667
:102F300002E0621EE4B3144603F8015B9A07F8D17D
:102F4000032C2ED9CDB245EA05250F2C45EA0545BF
:102F500019D903F110022646103E0F2E42F8105CDC
:102F600042F80C5C42F8085C42F8045C02F1100282
:102F7000F2D8A4F1100222F00F0204F00F04103274
:102F8000032C13440DD91E462246043A032A46F860
:102F9000045BFAD8221F22F003020432134404F027
:102FA00003042CB1C9B21C4403F8011BA342FBD19A
:102FB00070BC704714460346C2E700BFFFFFFFFF27
:102FC00090F800F06DE9024520F007016FF0000C69
:102FD00010F0070491F820F040F049804FF0000411
:102FE0006FF00700D1E9002391F840F000F10800EC
:102FF00082FA4CF2A4FA8CF283FA4CF3A2FA8CF324
:103000004BBBD1E9022382FA4CF200F10800A4FA8A
:103010008CF283FA4CF3A2FA8CF3E3B9D1E90423DE
:1030200082FA4CF200F10800A4FA8CF283FA4CF315
:10303000A2FA8CF37BB9D1E9062301F1200182FACF
:103040004CF200F10800A4FA8CF283FA4CF3A2FAD5
:103050008CF3002BC6D0002A04BF04301A4612BAE3
:10306000B2FA82F2FDE8024500EBD2007047D1E9E6
:10307000002304F00305C4F100004FEAC50514F075
:10308000040F91F840F00CFA05F562EA05021CBF46
:1030900063EA050362464FF00004A9E770B5002A11
:1030A0009AB005462FDB14461A464FF4027300917E
:1030B0000491ADF80C3011D0013C4FF6FF761E9B09
:1030C000029469460594ADF80E6001F02BF9421C9C
:1030D00012DB009B00221A701AB070BD1E9B029476
:1030E0004FF6FF7669460594ADF80E6001F01AF9C7
:1030F000431C04DB1AB070BD8B232B60E9E78B23E4
:103100002B601AB070BD8B2303604FF0FF30F1E7E6
:1031100010B582B0054C0093246813460A46014658
:103120002046FFF7BBFF02B010BD00BFC887FF1FDE
:10313000F0B58BB008AF109D04976C1C019407ACE0
:1031400009AF03940224029700949DF844600C4652
:1031500001F0EEFC099F42F20F739F4256D00378B4
:103160002370129B002B47D02E2363704278A31C40
:103170005AB1002D09DD013000E035B103F8012B13
:1031800010F8012F013D002AF7D1672E3AD0472EC3
:103190003AD0002D05DD1D44302103F8011BAB4260
:1031A000FBD17A1E46BF52422D212B21632A1E706D
:1031B000597003F102030DDD1749D01781FB02415D
:1031C000C0EB61116FF0630401F13000187004FB73
:1031D000012201331149D01781FB0241C0EBA1014B
:1031E0006FF0090000FB01223032303100205A70AC
:1031F000197098700BB0F0BD002DB5D1672E04F199
:103200000103C4D16526CCE74526CAE7014620461E
:1032100001F09CFBEEE700BF1F85EB516766666619
:103220002DE9F04788B0364C119DD4F80090064641
:103230000F4614469846002D43D00022314B3046AD
:10324000394602F043FF80BB0DF11C0E0321109B99
:10325000039300913B46CDF80880019432464846DE
:10326000CDF810E001F064FC079BD8F800109842FC
:10327000C1F100012ED2491B2B4610F8012B03F897
:10328000012B079A824203EB0106F6D8B44224DDF3
:10329000A21B1A44302103F8011B9A42FBD10023E0
:1032A0001370284608B0BDE8F0870022164B304660
:1032B000394602F029FF0028C6D00DF11C0E02216C
:1032C000C5E7D9F8302004F123039A4207DDD9F885
:1032D0003450B2E70E462B46D8E71A46DFE704F132
:1032E000240A5246D9F83410484600F011FF05462A
:1032F0000028D6D0C9F830A0C9F834009DE700BF37
:10330000C887FF1F0000F03F0000F0BF2DE9F04329
:103310008BB0234C139D276880468946144645B3DD
:10332000129A0392022109AE029301944B4642463F
:1033300038460496009101F0FBFB099B98422B460E
:103340001ED210F8012B03F8012B099A8242A3EB3D
:103350000501F6D88C4211DD621A1A44302103F8B7
:10336000011B9A42FBD10023137028460BB0BDE825
:10337000F0833A6BA24205DD7D6BD1E71A46F2E796
:103380000021E7E7661C3246796B0793384600F068
:10339000BFFE05460028E8D03E637863079BBFE781
:1033A000C887FF1F2DE9F04315468BB01C46064623
:1033B0000022002328462146DDF84880139F9DF80F
:1033C000509002F083FE002840F0B4802846214649
:1033D0000022002302F070FE002840F0A38028465F
:1033E000214665A3D3E9002302F07AFE002840F0CD
:1033F0008880404600F0B4FD02460B462846214630
:1034000002F078FE00287CD12146284600225C4B41
:1034100002F05CFE2A46234609A908AD07ACCDF8A8
:103420000480002840F089800491022130460395F1
:103430000294009101F07CFB079942F20F739942CC
:1034400000F08E800578002D00F08F80002940F379
:103450009080461C0A463C4600E0CAB1013A04F896
:10346000015B0792304616F8015B531A4344002D66
:10347000F3D1002A0CDD002BC8BF302101DC07E0AE
:103480002BB1013A04F8011B03F1FF33F8D1079285
:10349000159A0AB9027872B3A7425DD0079D2E2211
:1034A000002D227004F101020CDA002B4FDD3021D7
:1034B00001E0002B4AD0013502F8011B03F1FF3374
:1034C000F7D1079504785CB1002B02DC42E0002BB9
:1034D00040D002F8014B10F8014F013B002CF6D10F
:1034E0001599002936D0002B34DDD418302302F88A
:1034F000013B9442FBD10023384623700BB0BDE85A
:10350000F08308F1FF310091159902912A46234674
:10351000CDF8049030463946FFF70AFE38460BB026
:10352000BDE8F0833022002338463A707B700BB040
:10353000BDE8F08304F1004448E7049103213046DC
:1035400003950294009101F0F3FA75E7079501786D
:103550000029C5D01446CEE730223A707C1C9DE786
:103560000146384601F0F2F9D8E70A4643463C46A0
:103570007FE743463C468BE72D431CEBE2361A3F80
:103580000000F03F2DE9F0418AB00F469DF84860F9
:10359000109CA6F14505222D16D8DFE805F09027EE
:1035A00019151515151515151515151515151515C7
:1035B000151515151515151515151515151590272E
:1035C00019001A460023137038460AB0BDE8F0818E
:1035D000002C08BF012413990094039102960197CF
:1035E000FFF7E0FE38460AB0BDE8F08108A909AD52
:1035F000039103210495009107AD13990194002CC8
:1036000002950CBF88464FF0010801F091FA079A25
:1036100042F20F739A4265D00578002D67D0002AD8
:1036200058DD461C3B4601E0002A55D0013A03F81C
:10363000015B0792B64616F8015B002DF4D1002A13
:103640004ADD1A44302503F8015B9342FBD1002385
:103650000793B8F1000F03D19EF80030002BB1D0D2
:1036600070453BD007992E230029137002F1010306
:103670000CDA002CA5DD302201E0002CA1D00131B4
:1036800003F8012B04F1FF34F7D107919EF80020D5
:1036900062B1002C95DD714601E0002C91D003F859
:1036A000012B11F8012F013C002AF6D1002C88DDF6
:1036B0001A19302103F8011B9A42FBD182E71399B2
:1036C00002918DE850003946FFF732FD38460AB0C6
:1036D000BDE8F08186463B461A46BAE730231370B0
:1036E0000132BFE70146384601F030F96CE7864603
:1036F0003B46A4E770B5446A06460D465CB1E368F4
:1037000093B153F82500D8B1026843F8252000236F
:103710000361C36070BD102002F04CF97062446018
:1037200084600460C460044621220421304600F015
:1037300083FC736AE060DB68002BE2D1002070BD7F
:10374000012101FA05F4621D3046920000F074FC7C
:103750000028F3D045608460D9E700BF30B5456AE2
:1037600083B0044655B139B1636A4A68DB6853F8DF
:103770002200086043F8221003B030BD10200191F0
:1037800002F018F901996062456085600560C560C6
:10379000E9E700BFF0B50C6983B00D46064601F1BC
:1037A000140E0027DEF8000081B202FB01310B0C81
:1037B000000C02FB003389B2013701EB0341BC422C
:1037C0004EF8041B4FEA1343ECDC3BB1AA68944269
:1037D00007DA05EB8402013453612C61284603B0FB
:1037E000F0BD6968019301313046FFF783FF2A6914
:1037F000023205F10C01074692000C30FFF7F6FA91
:1038000029463046FFF7AAFF3D46019BE1E700BF8E
:103810002DE9F843234C089D1F46083384FB034ED3
:10382000DB17C3EB6E0EBEF1010F06460C46904649
:1038300035DD012300215B009E4501F10101FADC29
:103840003046FFF757FF0123B8F1090F45610361C7
:1038500021DD04F109094D46444415F8013B0146B8
:10386000303B0A223046FFF795FFA542F5D109EB20
:103870000804083C47450CDDC8EB0707274414F84B
:10388000013B0146303B0A223046FFF783FFA74247
:10389000F5D1BDE8F8830A344FF00908EAE70021C2
:1038A000CEE700BF398EE338030C1B04B3B9000424
:1038B000102310F07F4F04BF0002083310F0704F48
:1038C00004BF0001043310F0404F04BF80000233F6
:1038D000002807DB420003D4202070470023E8E7DC
:1038E000581C704718467047036813F0070207D04A
:1038F000D90720D49A0720D49B0803600220704780
:1039000099B209B91B0C102213F0FF0F04BF1B0A58
:103910000832190704BF1B090432990704BF9B082A
:103920000232D90704D45B0801D12020704701324C
:10393000036010467047002070475B080360012059
:10394000704700BF10B50C460121FFF7D3FE0122DE
:103950004461026110BD00BF2DE9F04F0D69176988
:10396000BD4283B00C46164604DA2A4634463D462C
:103970000E461746A368616805EB07089845C8BF5F
:103980000131FFF7B7FE00F1140C0CEB8809CC45B0
:10399000009005D26346002143F8041B9945FBD8EB
:1039A00006F1140202EB870A04F11403524503EBFB
:1039B000850E54D2CDF80490994652F8043B1FFA74
:1039C00083FBBBF1000F20D000204F466646054622
:1039D00000E01E4657F8044B3068A1B283B20BFBDF
:1039E0000131240C000C4B190BFB040000EB1340BD
:1039F00099B2334641EA0041BE454FEA104543F8CB
:103A0000041BE6D8756052F8043C5FEA134B20D0E3
:103A1000DCF80030674618464D46002100E0374686
:103A20002C88000C0BFB040001449CB23E4644EA87
:103A3000014346F8043B786855F8044B83B2240CE4
:103A40000BFB043404EB1143AE454FEA1341E6D8B7
:103A50007B6092450CF1040CAFD8DDF80490B8F10E
:103A6000000F0BDD59F8043CA9F104091BB105E076
:103A700059F8043D13B9B8F10108F9D10098C0F81C
:103A8000108003B0BDE8F08F2DE9F04312F003037E
:103A900083B0144607462DD10E46A4101CD07B6A75
:103AA0008BB39D68002D39D0E3074FF0000906D491
:103AB000641011D0286898B10546E307F8D531465F
:103AC0002A463846FFF748FF314680463846FFF71A
:103AD00045FE64104646EDD1304603B0BDE8F083A4
:103AE0002A4629463846FFF737FF2860C0F800907D
:103AF0000546E2E75A1E114D002355F82220FFF734
:103B000049FE0646C9E71020019301F053FF019BCF
:103B10007862436083600360C360034601213846D6
:103B20000193FFF7E7FD019B0546012140F271205B
:103B30000022686129619D602A60B5E71863000072
:103B40002DE9F04792460A698B684FEA6A1404EB44
:103B5000020909F101059D420E468046496804DDCF
:103B60005B009D4201F10101FADC4046FFF7C2FD16
:103B7000002C074600F1140233DD02EB8403002120
:103B800042F8041B9A42FBD1306906F114011AF085
:103B90001F0A01EB800E1CD0CAF120020024086825
:103BA00000FA0AF00443184643F8044B51F8044B5A
:103BB0008E4524FA02F4F2D844600CB109F10205F2
:103BC000013D40463D613146FFF7C8FD3846BDE83E
:103BD000F087043B51F8042B43F8042F8E45F9D8A5
:103BE000EEE71346D0E700BF02690B69D21A12D183
:103BF0009B0014301431194410B4034401E098427E
:103C00000BD253F8044D51F8042D9442F7D007D34A
:103C1000012010BC704710467047002010BC704750
:103C20004FF0FF30F5E700BF2DE9F8430B690F4671
:103C300011695B1A002B904617D1890007F1140215
:103C400008F114055318294401E09A425ED253F852
:103C5000046D51F8044DA642F7D060D23B4614469D
:103C600047464FF00109984606E05DDB07F1140571
:103C700002F114044FF000097968FFF73BFDD8F812
:103C800010303E69C0F80C9004EB830CA64605EB9F
:103C9000860700F1140400235EF8041B55F8048B1A
:103CA0008AB213FA88F3090C9A1AC1EB184303EB92
:103CB000224392B242EA0342F44544F8042B4FEA0D
:103CC0002343E9D8AF4217D9A446294651F804EB5B
:103CD00013FA8EF2131403EB1E4392B242EA03422C
:103CE0008F424CF8042B4FEA2343EFD8ED433D4479
:103CF00025F0030504352C44043C22B954F8043D56
:103D0000013E002BFAD00661BDE8F8830021FFF7E1
:103D1000F1FC0122002302614361BDE8F8832C46D7
:103D20004FF000091546A7E73B4607F1140408F1D8
:103D3000140547464FF0010998469DE70F4B0B408D
:103D4000A3F15073002B02DD0020194670475B423F
:103D50001B15132B0BDD143B1E2BDDBFC3F11F0303
:103D6000012202FA03F301230021184670474FF4A1
:103D70000022002042FA03F1704700BF0000F07FEC
:103D80002DE9F041066900F1140808EB860656F8A3
:103D9000047C3846FFF788FDC0F120030A280B6039
:103DA000A6F104031ADC984538BF56F8083CC0F168
:103DB0000B0227FA02F138BF23FA02F200F11503D1
:103DC00041F07F5528BF002207FA03F345F4401560
:103DD00043EA020420462946BDE8F081984520D2F6
:103DE000B0F10B0256F8081C1ED007FA02F040F0A2
:103DF0007F50C2F12007A6F1080340F4401021FAD9
:103E000007FE984540EA0E0520D256F80C3C01FA10
:103E100002F023FA07F20243144620462946BDE881
:103E2000F0810B3809D1014647F07F550C4645F427
:103E3000401520462946BDE8F08107FA00F040F021
:103E40007F55002245F440151446E6E701FA02F2D8
:103E50001446E2E72DE9F04182B001211C46C3F38C
:103E60000A571546089EFFF745FCC4F31304804625
:103E70000FB144F4801401941DB302A840F8085D0A
:103E8000FFF732FD002834D19DE80C00C8F814205B
:103E9000002B0CBF01210221C8F81830C8F81010FF
:103EA000DFB908EB8103A0F2324030601869FFF7F8
:103EB000FBFC099BC0EB41101860404602B0BDE816
:103EC000F08101A8FFF710FD019BC8F81430012113
:103ED0002030C8F81010002FE3D0099BA7F2334719
:103EE0000744C0F1350037601860404602B0BDE8B5
:103EF000F0819DE80C00C0F1200103FA01F10A43B2
:103F0000C3400193C8F81420C2E700BF2DE9F04375
:103F100083B00E4669460746FFF732FF04460D465A
:103F2000304601A9FFF72CFF89469DE80A003A694F
:103F30003669C91A961B01EB4613002B80460BDD30
:103F400005EB03510D4642464B462046294601F0FB
:103F500075FF03B0BDE8F083A9EB0357B946F2E75C
:103F6000172810B5044608DD074900200022074B3A
:103F700001F03AFE013CF9D110BD054B03EBC00442
:103F8000D4E9040110BD00BF0000F03F0000244050
:103F90001863000070B4146902F1140301394E1162
:103FA00003EB84040136A34200EB86060CD2011F0A
:103FB00053F8045B41F8045F9C42F9D8A31A153BFF
:103FC00023F0030304331844864204D9002340F845
:103FD000043B8642FBD870BC704700BF03694A119E
:103FE000934210B400F114040FDA04EB83039C42F3
:103FF0001FD253F8040C043B18B114E053F8042DFD
:104000008AB99C42FAD310BC70470FDD11F01F0132
:104010000CD054F8220020FA01F303FA01F188428F
:1040200004EB8203E3D0012010BC704704EB820351
:10403000DDE70020E7E700BF38B502FB01F42146C9
:1040400000F008F8054618B122460021FEF768FF87
:10405000284638BD70B5CD1C25F0030508350C2D5C
:1040600038BF0C25002D06463BDBA94239D827492D
:104070000A6852B113685B1B04D436E023685B1BEB
:104080001AD522465468002CF8D149681F4C0029E3
:1040900036D02946304600F047FC431C21D0C41CD2
:1040A00024F00304A04205D0211A304600F03CFC65
:1040B000013016D0256004E00B2B0DD923601C4481
:1040C000256004F10B0020F00700231DC31A02D065
:1040D0005A42E25070BD70BD94420ED06368536086
:1040E000EFE70C233360002070BD0B2B03D853681F
:1040F00014460B60E5E71446E0E713461446F8E77C
:10410000304600F011FC6060C3E700BF588AFF1F13
:10411000F9B1F8B506461546B2B10C4601F05AFDA4
:10412000854201D82046F8BD29463046FFF792FF68
:10413000074668B12A462146FEF758FE304621461A
:1041400001F002FD3846F8BD01F0FEFC2846F8BD3E
:10415000F8BD1146FFF77EBF2DE9F84F8E689E42ED
:104160000C461F46904629D88B8913F4906F35D0A2
:104170004D692268096905EB4505C1EB020A8146D4
:1041800005EBD5750AF101006D103844A8422A46A6
:1041900084BF05462A465B0523D511464846FFF7EE
:1041A00059FF834690B352462169FEF71FFEA3894B
:1041B00023F4906343F08003A38117E008681E4650
:1041C0001D462A46414601F05BFCA36822689E1BFF
:1041D0001544A66025600020BDE8F88F35460868C4
:1041E000EFE74846FFF794FF834658B1CAEB050353
:1041F0000BEB0A0065613E46C4F810B02060A36076
:104200003D46DEE72169484601F09EFC0C23C9F8D3
:104210000030A38943F04003A3814FF0FF30BDE895
:10422000F88F00BF2DE9F04F936883B09046002BC4
:1042300072D083464FF00009166808688B680D46F7
:104240004C46002C45D09C421F469A4646D3AB892B
:1042500013F4906F2DD06F69296907EB4707C1EB05
:10426000000A07EBD777601C7F105044B8423A46EB
:1042700084BF07463A465B0533D511465846FFF7DB
:10428000E9FE002837D0524629690190FEF7AEFDBD
:10429000AA89019B22F4906242F08002AA81CAEBB3
:1042A000070203EB0A006F612B612860AA602746B2
:1042B000A2465246494601F0E3FBD8F80820AB6815
:1042C0002868DB1B5044141BAB602860C8F808400A
:1042D00014B3D6F8009074680836B2E72746A246B1
:1042E000E7E75846FFF714FF03460028D7D12969AE
:1042F000584601F029FC0C23CBF80030AB89002292
:1043000043F040034FF0FF30AB81C8F80820C8F8F5
:10431000042003B0BDE8F08F0020C8F8040003B00B
:10432000BDE8F08F2DE9F04F14468A899DB015063F
:1043300088460393814603D50B69002B00F0EC807F
:1043400030238DF82A3023787C4DDFF8F4A100214A
:10435000202209918DF82920002B00F08580252B43
:10436000264603D117E0252B00F0888016F8013F80
:10437000002BF8D1B6EB040B76D022465B464146C3
:104380004846FFF7E9FE01306ED0099B32785B4466
:104390000993002A68D000234FF0FF31721C049368
:1043A000079306938DF853301A930591012604E084
:1043B000049906FA03F30B43049314465F482178EB
:1043C000052201F00DFB621C431B0028F0D1049B69
:1043D000D80644BF20228DF853201907217844BF06
:1043E0002B228DF853202A296AD0A1F13002092A04
:1043F0000BD8079B14F8011F03EB830302EB430365
:10440000A1F13002092AF5D907932E2941D00322C0
:104410004B4801F0E5FA48B10499CAEB000040228C
:1044200002FA00F041EA0003013404932178454880
:104430008DF828100622013401F0D2FA002861D04C
:10444000414BFBB103AB00934246404B04A94846A5
:10445000AFF3008007467A1C06D0099B3B440993C2
:104460002378002B7FF47BAFB8F80C305B0654BF89
:1044700009984FF0FF301DB0BDE8F08FB6EB040B8C
:1044800089D07AE7039B073323F0070308330393AC
:10449000E3E761782A291DD0A1F130020023092A1F
:1044A00004F101040593B2D814F8011F03EB830350
:1044B00002EB4303A1F13002092AF5D90593A6E7DF
:1044C000039A116804320029039215DB0791617881
:1044D00001349AE7039B1A680592002A03F104034A
:1044E0000393B8BF4FF0FF3204F10203AEBFA178CF
:1044F000A17805921C468AE7494243F002030791DE
:104500000493E4E703AB00934246104B04A94846EA
:1045100000F0B6F807469EE74021FFF79BFDC8F87C
:104520000000C8F8100018B14023C8F8143007E79D
:104530000C23C9F800304FF0FF309CE740640000C6
:10454000486400004C640000000000005941000075
:104550002DE9F0470C4691460969A268DDF82080F4
:104560008A42B8BF0A46C9F8002094F843100646AC
:104570001F4611B10132C9F80020236899065DD5A4
:10458000D9F800200232C9F80020236813F0060F82
:1045900019461DD1E1688A1A002AD8BF194617DDCD
:1045A00004F1190A002505E0E368D9F800209B1AF8
:1045B000AB420CDD0123524639463046C04701303C
:1045C00005F10105F0D14FF0FF30BDE8F08721681B
:1045D00094F84330003318BF01238A060AD5E11846
:1045E0005A1C302081F84300224494F8451082F888
:1045F0004310023304F1430239463046C0470130CC
:10460000E1D0236803F00603042B29D0A3682269B4
:104610009342C8BF4FF000092FDD9B1A99441A340A
:10462000002501E04D4528D0012322463946304679
:10463000C047013005F10105F4D1C4E713F0060FBE
:1046400008D1E168D9F800208A1A002AD8BF194693
:10465000A6DCBDE794F84330003318BF0123C9E757
:10466000D9F80000E168A3682269091A934221EA97
:10467000E179D2DCB9F1000FD1D10020BDE8F0879B
:104680002DE9F0430C46097E85B06E290646174693
:104690000C98984604F1430C5AD01AD8632900F0BC
:1046A000128100F2D68000295CD0582940F0F580B4
:1046B00084F8451022680368DFF864E2150603F108
:1046C00004011ED4550653BF1B6801601B8801609E
:1046D00019E0732900F0CF807ED86F2900F0E480C4
:1046E000702940F0DA80226842F0200222607823AC
:1046F00084F845300368DFF82CE2150603F1040165
:10470000E0D51B680160D00744BF42F02002226060
:10471000002B40F09080226822F0200222601021BD
:10472000002284F843206068A0600028C0F28880DE
:10473000226822F004022260002B62D1002840F09F
:104740008180654608296AD0C5EB0C0323610CE023
:1047500023681A0640F1D58003686269191D01605B
:104760001B681A60002365462361CDF800803B4634
:1047700003AA21463046FFF7EBFE013021D02A463E
:10478000236939463046C04701301AD02368039860
:1047900013F0020FE36819D01A1A002A16DD04F18B
:1047A0001909002504E0E36803981A1AAA420DDDEE
:1047B00001234A4639463046C047013005F101051C
:1047C000F1D14FF0FF3005B0BDE8F0839842B8BF9B
:1047D000184605B0BDE8F083752965D078295CD10D
:1047E000226884E76168A1602D200029C3F10003DD
:1047F00084F8430021DB22F00402DFF824E1226088
:104800000A216546B3FBF1F201FB123013461EF894
:10481000002005F8012D002BF4D1082994D123683C
:10482000D90791D5626823699A428DDC302305F857
:10483000013C013D88E7102172E7DFF8E4E00A213E
:10484000002BDED19EF8003084F8423004F142059E
:1048500078E7642901D069291FD122680368150609
:1048600003F104013AD51B680160002BBADBDFF8C5
:10487000B0E00A2157E703686268191D01601D68EE
:104880000021284601F0ACF8002846D0401B6060AB
:104890002061002384F8433067E7012384F8421045
:1048A000236104F14205F4E723681A061ED5036864
:1048B0001A1D1B680260227EDFF864E06F2A14BFB5
:1048C0000A2108212CE703681A68191D01230160D9
:1048D00004F1420584F842202361DAE7550653BF0C
:1048E0001B680160B3F900300160BEE713F0400FB0
:1048F000036803F1040215BF02601B681B88026095
:10490000D9E713F0400F0368626903F10401016005
:104910001B6814BF1A801A6024E76068B8E700BFFC
:10492000546400006864000038B5074C0023054655
:1049300008462360FCF783FC431C00D038BD236885
:10494000002BFBD02B6038BD748AFF1F80EA010268
:10495000844612F0030F4FD111F0030F32D14DF8FE
:10496000044D11F0040F51F8043B0BD0A3F10132B8
:104970009A4312F0803F04BF4CF8043B51F8043BCB
:1049800016D100BF51F8044BA3F101329A4312F043
:10499000803FA4F101320BD14CF8043BA24312F04A
:1049A000803F04BF51F8043B4CF8044BEAD0234647
:1049B0000CF8013B13F0FF0F4FEA3323F8D15DF8F9
:1049C000044B704711F0010F06D011F8012B0CF8C1
:1049D000012B002A08BF704711F0020FBFD031F839
:1049E000022B12F0FF0F16BF2CF8022B8CF80020C0
:1049F00012F47F4FB3D1704711F8012B0CF8012B43
:104A0000002AF9D1704700BF02690B69934200F395
:104A10008D802DE9F04F03F1FF3801F1140700F10B
:104A2000140B57F828205BF828304FEA880483B02D
:104A30000132B3FBF2F90BEB0403009407EB040A19
:104A40000193B9F1000F39D00025BC46DE462B4654
:104A50005CF8046BDEF80020B4B209FB0455360C98
:104A60002C0C09FB0644ADB25B1BA6B213FA82F311
:104A7000C6EB124606EB23469BB243EA0643E245E9
:104A80004EF8043B4FEA14454FEA2643E0D2009B20
:104A90005BF8033093B9019C231F9B450CD254F85B
:104AA000043C4BB9A4F1080302E01A68043B1AB9AC
:104AB0009B4508F1FF38F8D3C0F810800446FFF793
:104AC00093F800282EDB09F101095D46002357F811
:104AD000041B28688AB29A1A090C12FA80F2C1EBF8
:104AE000104303EB224391B241EA0341BA4545F832
:104AF000041B4FEA2343EAD25BF828200BEB880320
:104B000082B91A1F93450BD253F8042C42B9083BC3
:104B100002E01A68043B1AB99B4508F1FF38F8D344
:104B2000C4F81080484603B0BDE8F08F00207047FD
:104B30002DE9F04F456A97B08146239C92469B46EB
:104B4000002D00F0E182296851B16A684A600123B2
:104B500093408B60FEF702FED9F8243000221A60E1
:104B6000BBF1000FD84633DB00232360A64B1A4667
:104B700008EA0303934214D050465946002200230A
:104B800001F09AFA054648B3229A01231360249B48
:104B9000002B00F0C5809D481860013817B0BDE8B3
:104BA000F08F229A42F20F731360BAF1000F00F0F7
:104BB000A2809748249B002BF0D0C378002B00F0F4
:104BC000B18000F10803249A136017B0BDE8F08F9C
:104BD00001232BF000482360C346C7E714AA15AB96
:104BE0000192009352465B464846FFF733F95FEA6D
:104BF0001854089040F08880149D159C2C4404F2B1
:104C00003243202B40F3AE82C3F1400304F2124042
:104C100008FA03F82AFA00F040EA0800FDF7EEFC73
:104C20000123013CA1F1F87110930022794BFDF7AB
:104C3000A7FB6FA3D3E9002300F0D6FF6EA3D3E94F
:104C40000023FDF79FFB064620460F46FDF7E6FCD6
:104C50006BA3D3E9002300F0C7FF02460B463046A2
:104C60003946FDF78FFB06460F4601F057FA002242
:104C7000049000233046394601F028FA002840F01D
:104C80005B82049E162E00F23C82634B03EBC6034C
:104C9000D3E9000152465B4601F036FA002800F0E5
:104CA0006682731E049300230C932C1B631E0293D5
:104CB00000F13D8200230593049B002BC0F22E825D
:104CC000029A0B9311461944002302910A93209BE8
:104CD000092B29D8052B40F36286043B209300253D
:104CE000209B023B032B00F24486DFE813F04903CC
:104CF000450254038104464B484AC8F31300002878
:104D000014BF1846104655E7CBF3130343F07F5109
:104D100010955046A4F2FF3441F44011149D84E7ED
:104D20003F483BE7C31C4EE7D9F8245000246C6091
:104D300021464846FEF7DEFCD9F8243028601B687F
:104D400007934FF0FF3201232194069220940D9295
:104D50000993159B002BC0F2D180049A0E2A00F310
:104D6000CD802D4B03EBC203D3E90034CDE90234EF
:104D7000219B002BC0F21A8356465F465046594687
:104D8000DDE902AB52465B4601F058F801F0C6F986
:104D90000446FDF743FC52465B4600F025FF0B46F8
:104DA000024639463046FDF7EBFA079D04F1300321
:104DB0002B70069B012B06460F4605F1010562D0BC
:104DC0000022184B00F010FF0022002306460F4679
:104DD00001F072F900287ED1CDF81490DDF818A00A
:104DE000DDF81CB0DDE9028929E000BFAFF30080E7
:104DF00061436F63A787D23FB3C8608B288AC63FE1
:104E0000FB799F501344D33F0000F07F8D64000076
:104E1000886400000000F83F286300007C64000004
:104E20008C6400000000244000F0DEFE002200231D
:104E300006460F4601F040F9002840F0DC83424668
:104E40004B463046394600F0F9FF01F067F9044659
:104E5000FDF7E4FB42464B4600F0C6FE02460B4619
:104E600030463946FDF78CFA04F1300E05F801EBB7
:104E7000CBEB050ED64506460F464FF00002BD4B64
:104E8000D2D1DDF8149032463B4630463946FDF724
:104E900079FA06460F4602460B46DDE9020101F0AB
:104EA00015F940B932463B46DDE9020101F004F94B
:104EB00088B1E3070FD515F8014C079A6B1E04E083
:104EC0009A4200F0378413F8014D392C03F10105A3
:104ED000F6D001341C7008994846FEF73FFC0022CA
:104EE000049B2A70229A01331360249B002B00F04C
:104EF000B18307981D6017B0BDE8F08F099A002AAA
:104F000000F02C81209A012A40F37282069B0A9AB3
:104F10005F1EBA42C0F2A183D71B069B002BC0F2D2
:104F20009584059D069B059A1A440592029A0121D3
:104F30001A4448460292FEF705FD064665B10299FD
:104F400000290B4608DDA942059AA8BF2B46D21AB4
:104F5000ED1ACB1A059202930A9B002B40F3218392
:104F6000099A002A00F01B82002F00F018823146B7
:104F70003A464846FEF788FDDDF820800146424665
:104F800006464846FEF7E8FC414604464846FEF71A
:104F9000E5FB0A9BDB1B0A9340F000820121484697
:104FA000FEF7D0FC0B9B8046002B00F033820146BD
:104FB0001A464846FEF768FD209B012B804600F309
:104FC000CA82BAF1000F40F0C682CBF31303002B64
:104FD00040F049842BF000473F0D3F0537B1059B5A
:104FE00001330593029B0133029301270B9B0120A0
:104FF000002B40F0B182029A104410F01F0000F024
:105000000082C0F12003042B40F3AE84059BC0F165
:105010001C00034405931346034405440293059B77
:10502000002B05DD21461A464846FEF789FD044659
:10503000029B002B05DD41461A464846FEF780FDDF
:1050400080460C9B002B40F09182069B002B40F386
:10505000AA82099B002B40F0FF81DDF81CB0069F5F
:105060005D4602E0FEF796FB044641462046FFF708
:10507000CBFC00F1300A05F801ABCBEB0503BB42DA
:105080004FF00A024FF0000321464846EADB079B37
:10509000069A012AACBF9B1801331D464FF0000B46
:1050A000214601224846FEF74BFD41460890FEF797
:1050B0009BFD002840F3088315F8012C07996B1E0F
:1050C00004E08B4200F08D8213F8012D392A03F1A0
:1050D0000105F6D001321A7041464846FEF73EFB04
:1050E000002E3FF4F8AEBBF1000F05D0B34503D05E
:1050F00059464846FEF732FB31464846FEF72EFB3E
:10510000E9E601230C93D0E5102000F053FCC9F828
:105110002400456085600560C56021E5059A049B13
:10512000D21A5B420A93002305920B93CFE55B42B0
:10513000059300230293BFE5DDF810804046FDF79C
:105140006DFA02460B463046394600F0B5FF00289E
:105150007FF497AD08F1FF33049392E50A9F059D14
:10516000099EEBE6C3F120080AFA08F056E50C9018
:105170009BE500BF0000244000230993049B219A73
:1051800013440D930133002B069340F37382069C66
:105190002246D9F824600021172A716008D9042317
:1051A0005B0003F11400904201F10101F8D9716034
:1051B0004846FEF79FFAD9F8243030601B68079301
:1051C0000E2C3FF6C6AD002D3FF4C3AD04995746F3
:1051D000D8460029CDE90E7840F38382914B01F047
:1051E0000F020E1103EBC203F006D3E9004540F1B4
:1051F0003C828D4B50465946D3E9082300F01EFEF1
:1052000006F00F0682468B464FF0030886B1864FA4
:10521000F10709D520462946D7E9002300F0E4FC30
:1052200008F1010804460D46761007F10807EFD192
:1052300022462B465046594600F000FE06460F46D1
:105240000C9B43B10022794B3046394600F03EFFBB
:10525000002840F010834046FDF7E0F932463B4617
:1052600000F0C2FC724B0022FDF78CF8069B04464E
:10527000A1F15075002B00F0CF81049BDDF8188060
:105280001193099B002B00F08882664B694903EB60
:10529000C80353E90223002000F0D0FD22462B462C
:1052A000FDF76EF882468B463046394600F036FFF1
:1052B0000446FDF7B3F902460B4630463946FDF782
:1052C0005FF83034079DE4B206460F462C70024664
:1052D0000B4650465946013500F016FF00284CD1C8
:1052E00032463B4600205149FDF74AF802460B463C
:1052F0005046594600F008FF002840F0FF82B8F100
:10530000010F40F3A381079B98440DE0002047491B
:10531000FDF736F852465B4600F0D8FE002840F014
:10532000ED82454500F09281504659460022424B9D
:1053300000F05AFC0022404B82468B4630463946EC
:1053400000F052FC0F46064600F0E8FE0446FDF76A
:1053500065F902460B4630463946FDF711F8303400
:10536000E4B252465B4605F8014B06460F4600F094
:10537000ADFE32463B460028C8D0119B0493AAE5F7
:1053800000230993219B002B40F37A811A461C4687
:105390000D930693FDE601230993F3E708940A9A17
:1053A00008994846FEF770FB0446F7E5069B002B7C
:1053B0003FF7E2AC40F0C7820022204BDDE902015A
:1053C00000F012FC52465B4600F094FEDDF81880B7
:1053D0004646002800F0FD80219B079DDB43049397
:1053E00041464846FEF7BAF9002E3FF474AD83E615
:1053F000109A002A00F0308203F233430A9F059D81
:1054000091E51C20059B03440593029B034405443E
:10541000029304E6209B012B40F3C4820B9F0120E2
:10542000E9E500BF28630000186400000000F03FB9
:1054300000001C400000E03F000024400000144039
:10544000314600230A224846FEF7A4F90D9B002BA3
:10545000064640F384820693002D05DD31462A4638
:105460004846FEF76DFB0646002F40F06D8105961D
:10547000069B079ADDF814B0013BD31808930AF095
:10548000010309931746C24651462046FFF7BCFA6E
:10549000314605462046FEF7A7FB5A460290514684
:1054A0004846FEF7C1FBC268804605F13003002A7A
:1054B00049D1014620460693FEF796FB41460590EA
:1054C0004846FEF74BF9059A069B2AB9209919B967
:1054D0000999002900F0168202990029C0F2D580AE
:1054E00005D1209919B90999002900F0CE80002A28
:1054F00000F33E81089A3B7007F101089742454648
:1055000000F04581214600230A224846FEF742F971
:105510005E45044631464FF000034FF00A0248460C
:105520000BD0FEF737F95946064600230A224846B3
:10553000FEF730F947468346A6E7FEF72BF94746C4
:1055400006468346A0E7014648460593FEF706F95E
:105550000122059BC0E70027D8F8103008EB830331
:105560001869FEF7A1F9C0F1200044E54146204644
:10557000FEF73AFB0028BFF668AD2146049C0023E5
:10558000013C0A2248460494FEF704F9099B0446AC
:10559000002B7FF455AF0D9B002B40F3D881069371
:1055A0005BE5089CFAE4209B022B7FF752AD069B3B
:1055B000002B40F08581414605224846FEF7EAF877
:1055C000014680462046FEF70FFB002808947FF72F
:1055D00003AF049A07993123013204920B704D1CDA
:1055E000FEE6049A01320492079A3123137073E5A0
:1055F00001230993C2E5DDF814906CE44046FDF701
:105600000DF832463B4600F0EFFA0022C44BFCF79F
:10561000B9FE0446A1F15075304639460022C14B0F
:10562000FCF7AEFE22462B4606460F4600F06CFD08
:105630008046002840F00681224605F100433046AE
:10564000394600F043FD08B14646C5E6DDE90EAB3C
:10565000FFF77FBB0798FFF7A1BA0A9B0B9A0A973F
:10566000FB1A1A440B92002757E4DDE90EAB4FF00A
:105670000208CBE51C46D9F824600021716097E54B
:10568000012421940D940694F5E7002AD046CDF824
:1056900014B09A4611DD214601224846FEF750FA21
:1056A00041460446FEF7A0FA002840F34581BAF1CE
:1056B000390F00F0078105F1310AB34687F800A0E1
:1056C0007D1C059E089407E504D11AF0010F01D056
:1056D000F2E4154615F8013C302B05F1FF32F8D005
:1056E000FAE4049B5C42002C00F0C0808E4B04F076
:1056F0000F0203EBC203D3E90023DDE90E0100F042
:1057000073FA241106460F4600F02681874D4FF0AC
:105710000208E20709D530463946D5E9002300F0F2
:1057200063FA08F1010806460F46641005F1080502
:10573000EFD185E5079930220A70049A15F8014CDB
:1057400001320492FFF7C5BB71684846FDF7D2FFEE
:1057500033699A1C0546920006F10C010C30FDF7E6
:1057600045FB294601224846FEF7EAF905907FE607
:10577000392BCDF814B0D04600F0A48003F1010A13
:10578000B34687F800A07D1C059E0894A4E45A4601
:10579000D046B3469A46164682E4634908F1FF3A7A
:1057A00001EBCA0122462B46D1E9000100F01CFAA8
:1057B000CDE912013946304600F0B0FC0446FCF752
:1057C0002DFF02460B4630463946FCF7D9FD079AB5
:1057D0003034B8F1010F06460F46147002F101058E
:1057E0001ED0079B03EB080BA8460022504B304607
:1057F000394600F0F9F90F46064600F08FFC0446E2
:10580000FCF70CFF303402460B4630463946FCF7B5
:10581000B7FD08F8014BC34506460F46E5D1554490
:105820000022444BDDE91201FCF7ACFD32463B4659
:1058300000F04CFC00284DD0119B049315F8014C4E
:10584000FFF73BBB4FF000084646C2E6059B069AB1
:105850009D1A0023FFF767BB149B0A9F059DC3F1A8
:105860003603FFF760BB0027FFF7C0BBDDE90E671B
:105870004FF00208E4E4069B002B3FF4BFAE0D9B03
:10588000002B7FF7E3AE0022294B3046394600F06B
:10589000ABF906460F4608F10100FCF7BFFE3246A1
:1058A0003B4600F0A1F900221D4BFCF76BFD049A6A
:1058B000DDF83480013A0446A1F150751192E0E41C
:1058C000089489E53922B3460894059E3A707D1CF8
:1058D000FFF7F4BBDDE9122300201649FCF750FD69
:1058E00032463B4600F010FC08B9AFE6154615F805
:1058F000013C302B05F1FF32F8D03EE5119B0493BB
:10590000FFF7DBBA392BCDF814B0D046DDF808B07C
:105910009A46D7D0BBF1000F3FF7CDAECDE600BF22
:1059200000001C40000014402863000018640000C0
:10593000000024400000E03F7FF4BFAE1AF0010FEA
:105940003FF4BBAEB3E64FF00008464644E5209B6B
:10595000022B2CDC0D9B22E64FF0020870E4209B0A
:10596000022B24DC0D9B76E53FF459ABC0F13C00E3
:1059700048E5D9F8245000246C6021464846FDF7DC
:10598000B9FED9F8243028601B6807934FF0FF3226
:105990000123069221940D920993FFF7DAB90125AC
:1059A000FFF79EB9BAF1000F3FF40FAB36E50D9B40
:1059B0000693FCE5024B01461868FEF74BBB00BF9F
:1059C000C887FF1F024B0146186800F0BDB800BF32
:1059D000C887FF1FFFFFFFFFFFFFFFFFFFFFFFFF66
:1059E00001F0FF01102A2BDB10F0070F08D010F890
:1059F000013B013A8B422DD010F0070F42B3F6D194
:105A0000F0B441EA012141EA014122F007047FF0AC
:105A100000070023F0E80256083C85EA010586EA03
:105A2000010685FA47F5A3FA87F586FA47F6A5FA3F
:105A300087F68EB9EED1F0BC01F0FF0102F007024B
:105A400032B110F8013B013A83EA010313B1F8D1F6
:105A50000020704701387047002D06BF35460338D7
:105A6000073815F0010F07D1013015F4807F02BF10
:105A7000013015F4C03F0130F0BC0138704700BF61
:105A80008842F0B50DD98B1898420AD28118002AA5
:105A900051D09A1A13F8014D01F8014D9342F9D1F2
:105AA000F0BD0F2A48D941EA00039B0746D100F117
:105AB000100401F11003154653F8106C44F8106CF3
:105AC00053F80C6C44F80C6C53F8086C44F8086CF0
:105AD000103D53F8046C44F8046C0F2D03F11003CF
